:020000040800F2
:1000000068060020F12E00085F270008CB2E0008AC
:1000100000000000000000000000000000000000E0
:10002000000000000000000000000000D72E0008C3
:100030000000000000000000F92E0008350700084D
:10004000FB2E0008FD2E000839170008FF2E0008BF
:10005000012F0008032F0008052F0008590700088A
:10006000072F0008092F00080B2F00080D2F00088C
:100070000F2F0008112F0008132F0008152F00085C
:10008000172F0008192F00081B2F00081D2F00082C
:100090001F2F0008212F0008232F0008252F0008FC
:1000A000272F0008292F00082B2F00082D2F0008CC
:1000B0002F2F0008312F0008332F0008352F00089C
:1000C000F0B49025ED052868F14901408020000139
:1000D00008432860E868EE4901408020C0000843DA
:1000E000E8606868202188436860A868C021090129
:1000F0000143A960A869000C000420210143A96103
:10010000A86980B2A8612868E24901408020800186
:1001100008432860E868DF49014080204001084327
:10012000E8606868402188436860A868C021890148
:100130000143A960A869000C000440210143A961A2
:10014000A86980B2A861EF482968014080221202A4
:100150000A432A60E96801408022D2010A43EA602A
:100160006968802291436960A968C2430A43AA6012
:10017000A969090C090480220A43AA61A96989B204
:10018000A96101212A6803239A430A432A60EA6885
:100190009A430A43EA606A688A436A60AA689A4393
:1001A000AA60AA69120C12040A43AA61AA6992B24F
:1001B000AA612A680C2313432B60EA680C239A4334
:1001C000EA606A6802239A436A60AA680C239A4329
:1001D000AA60AA69120C1204AA61AA6992B2AA6161
:1001E0003022D2432B68134010241C432C60EB6850
:1001F000134020241C43EC606B680424A3436B6011
:10020000AB681340AB60AB691B0C1B04AB61AB6903
:100210009BB28C041C43AC612B68C0241C432C6033
:10022000C023DB43EC681C40EC606C680826B443D8
:100230006C60AC681C40AC60AC69240C2404AC61FC
:10024000AC69A4B2AC61E34C2E6826400F02374380
:100250002F60EE6826400F023743EF606E6810276C
:10026000BE436E60AE6826400F023743AF60AE6992
:10027000360C360410273743AF61AE69B6B2AE61B3
:100280002F68F14E3E400F0637432F60EF68EE4E69
:100290003E404F063743EF606E68EC4F37406F606B
:1002A000AE68E94F3740AF60AE69360C3604AE61D8
:1002B000AE69B6B20F073743AF612E68B600B60815
:1002C0002E60EE68B600B6088F073743EF606E68A1
:1002D000DF4F37406F60AE68B600B608AE60AE69FB
:1002E000360C3604CF033743AF61AE69B6B2AE61A8
:1002F000D84D2E680327BE432E60EE68BE430E43E2
:10030000EE606E688E436E60AE68BE43AE60AE69EE
:10031000360C36040E43AE61AE69B6B2AE61AE695C
:10032000360C36040E43AE612E680C2737432F601F
:10033000EE680C27BE43EE606E680227BE436E6017
:10034000AE680C27BE43AE60AE69360C3604AE61B3
:10035000AE69B6B2AE612E681640102737432F60E3
:10036000EE68164020273743EF606E680427BE43CF
:100370006E60AE683240AA60AA69120C1204AA61CB
:10038000AA6992B28E041643AE612A681A402A60A6
:10039000EA681A4040261643EE606A680826B243AF
:1003A0006A60AA681340AB60AA69120C12040823A1
:1003B0001343AB61AA6992B2AA612A6822402A60FB
:1003C000EA6822400B021343EB606A6810239A43E9
:1003D0006A60AA681440AC60AA69120C1204134344
:1003E000AB61AA6992B2AA612A68294B13408A02BA
:1003F0001A432A60EA68264B1340CA021A43EA608D
:100400006A6820239A436A60AA68214B1340AB6054
:10041000AA69120C1204AA61AA6992B24B0513438D
:10042000AB61A24A2B6813402B60EB6813408C042D
:100430001C43EC606B68BB4C1C406C60AB681A40A2
:10044000AA60AA69120C12044B021343AB61AA6999
:1004500092B2AA610B05B44A2C6814401C432C606C
:10046000EC6814402343EB606B68B04C1C406C603C
:10047000AB681A40AA60AA69120C12048B021343DB
:10048000AB61AA6992B2AA618A05A94C04E000BFD7
:10049000FFF3FFFFFFCFFFFF2B68234013432B60C9
:1004A000CB05EE6826401E43EE606E68A94F3740CC
:1004B0006F60AE683440AC60AC69240C2404AC615D
:1004C000AC69A4B2CE062643AE612C685E4E2640CF
:1004D0002E60EC685C4E26400C063443EC606C6881
:1004E0005A4E26406E60AC68574E2640AE60AC69EE
:1004F000240C24040E032643AE61AC69A4B2AC61A3
:10050000964C01E0FF3FFFFF2E6826400F07374360
:100510002F60EE6826400F073743EF606E68904FFC
:1005200037406F60AE683440AC60AC69240C240482
:100530008E032643AE61AC69A4B2AC61894C2568D8
:100540000326B5430D432560E568B54302262E43D7
:10055000E66065688D436560A5680326B543A560C0
:10056000A5692D0C2D04A561A569ADB20E042E431D
:10057000A66125680C26B54304262E432660E5684F
:100580000C26B54308262E43E66065680226B5436F
:100590006560A5680C26B543A560A5692D0C2D04E2
:1005A000A561A569ADB24E042E43A66125686E4EC5
:1005B0002E400D0335432560E5686B4E2E404D03FC
:1005C0003543E56065684026B5436560A568664EBD
:1005D00002E000BFFFFCFFFF2E40A660A5692D0CC6
:1005E0002D04A561A569ADB22A43A261226802402B
:1005F0008D0315432560E2680240CD031543E56095
:1006000062688025AA436260A2681040A060A06969
:10061000000C0004A061A06980B20343A3615348A9
:1006200002680F239A430A43026051480268FF237D
:100630009A430A430260C2689A431143C1604D491C
:100640000D60F0BC704700BFFFFFFFFCFFEFFFFF36
:10065000FF7FFFFF00040048474801688022120620
:100660000A4302600168C90FFCD14168802252022E
:100670000A434260C16807220A43C260016801223E
:100680000A4302600021016241683C4A0A4042601C
:10069000A2490A688023DB0313430B608168890049
:1006A00089088022D2050A4382607047FFFFF3FF6A
:1006B00010B4802040019A490A6802430A6004226B
:1006C00098490B6813430B600B6838241C430C607B
:1006D0004B68954C1C40E023DB0023434B600B68C8
:1006E0000124A3430B600B680224A3430B600B6837
:1006F0008024A3430B604B681A434A600A680309CD
:1007000013430B600A68C30813430B604A68104325
:10071000486040204A6802434A600A681043086003
:1007200010BC7047FFFDFFFFFFFFCFFFFFFBFFFF88
:10073000FFFF3FFF7D48018C491C0184818C491CCF
:1007400089B20A2903DB0021428C521C4284818435
:1007500070470000FFF7FFFF70470000FFFFFFCF6B
:10076000FFBFFFFF00140048FFCFFFFF080001405C
:100770000004014000E100E008240140FFDFFFFF2A
:10078000FAB46C49096889B2802464030C4369494E
:100790000C600121040016D0674C654D069E2F6841
:1007A000FF090F40FBD12F687F080F40FBD017785F
:1007B0002F71370004D02F680F40FCD02F7927709D
:1007C000521C401EEBD15D48C26A120C12049624E2
:1007D00064001443C462426A120C12044262026949
:1007E0008A43026102680A43026002690A40FCD03F
:1007F000504A1268120C1204102414434D4A14601B
:100800004D4C0022227062704A4A126892B20D0565
:100810001543484A15606A461278002A5FD0444D55
:100820001A78772A42D02A68D2090A40FBD12A686E
:1008300052080A40FBD044222A712A680A40FCD0A0
:10084000442222701422C66A360C36041643C6624D
:10085000466A360C3604466206698E4306610668AF
:100860000E43066006690E40FCD02E68F6090E4065
:10087000FBD12E6876080E40FBD0FF262E712E6825
:100880000E40FCD0FF262670C76A3F0C3F043A4357
:10089000C262426A120C1204426202698A43026115
:1008A00002680A43026002690A40FCD02A68D20941
:1008B0000A40FBD12A6852080A40FBD01A782A71F4
:1008C0002A680A40FCD02A791A705B1C6A461278A2
:1008D000521E6C4622706A461278002AE6D1C26A1D
:1008E000120C120496235B001343C362426A120C7B
:1008F0001204426202698A43026102680A4302608A
:1009000002690A40FCD00B480068000C000410216A
:10091000014308480160F3BC70470000082701400C
:100920001810024000300140FFF0FFFFC801002016
:100930000830014018000048BD06002000040040B7
:10094000F0B583B0002069460871C2480168090CFF
:100950000904802212010A4302600168090C09049B
:1009600004220A430260BA4CE16A090C0904142209
:100970000A43E262616A090C090461622169012289
:100980009143216101252168294321602169294082
:10099000FCD0016889B292040A430260E06A000C4C
:1009A00000042D210143E162606A000C00046062D2
:1009B0002069A843206120682843206020692840DE
:1009C000FCD000200090A64BA34A09210120FFF78C
:1009D000D7FE0B270B20A14EE16A090C0904314315
:1009E000E162616A090C090461622169A94321611C
:1009F00021682943216021692940FCD0401EEBD1A8
:100A00000095974B974A08210720FFF7B9FE0B2066
:100A1000E16A090C09043143E162616A090C0904C5
:100A200061622169A943216121682943216021690B
:100A30002940FCD0401EEBD10095894B8A4A002109
:100A40007220FFF79DFE0B20E16A090C0904314377
:100A5000E162616A090C090461622169A9432161AB
:100A600021682943216021692940FCD0401EEBD137
:100A7000012000907A4B01AA0021FFF781FE0B2094
:100A8000E16A090C09043143E162616A090C090455
:100A900061622169A943216121682943216021699B
:100AA0002940FCD0401EEBD100956D4B6F4A0021D0
:100AB0007020FFF765FE0B20E16A090C0904314341
:100AC000E162616A090C090461622169A94321613B
:100AD00021682943216021692940FCD0401EEBD1C7
:100AE00000955F4B624A02210320FFF749FE0B206D
:100AF000E16A090C09043143E162616A090C0904E5
:100B000061622169A943216121682943216021692A
:100B10002940FCD0401EEBD10095514B554A08218D
:100B20000720FFF72DFE00950023714A00210820C1
:100B3000FFF726FE0B20E16A090C09043143E1624C
:100B4000616A090C090461622169A9432161216874
:100B50002943216021692940FCD0401EEBD100953A
:100B60000023644A00210820FFF70AFE0B20E16AF7
:100B7000090C09043143E162616A090C09046162EC
:100B80002169A94321612168294321602169294004
:100B9000FCD0401EEBD100950023574A00210820CD
:100BA000FFF7EEFD0B20E16A090C09043143E16215
:100BB000616A090C090461622169A9432161216804
:100BC0002943216021692940FCD0401EEBD10095CA
:100BD00000234A4A00210820FFF7D2FD0B20E16ADA
:100BE000090C09043143E162616A090C090461627C
:100BF0002169A94321612168294321602169294094
:100C0000FCD0401EEBD100950023804A0021052036
:100C1000FFF7B6FDE06A000C00043043E062606A52
:100C2000000C000460622069A8432061206828430A
:100C3000206020692840FCD07F1EEBD10095084B36
:100C4000724A02210420FFF79BFD03B0F0BD0000B3
:100C50000004004018040048D02D0008DE03000006
:100C600068060020D42D0008EC2C0008602D000838
:100C7000E42D0008DC2D00086548C26DC0218A43C0
:100C800064490B68DB0603D440231343C36500E0CB
:100C9000C265C36D604A1A40604B1B681B0404D4D4
:100CA00080235B001343C36500E0C265C26D096821
:100CB000090711D4C17E022907D01105890F04D17B
:100CC0000121C176022303778177C1491140802237
:100CD000D2000A43C26570471105890F06D0002172
:100CE000C176BB491140C165012181777047000081
:100CF000B02C0008BC2C0008CC2C0008DC2C000810
:100D0000F0B583B0AD480188491C0180AC4C206827
:100D100004210143216080208002A062A068042198
:100D20000143A1600125206880082840FBD0266C83
:100D3000A448008801F048FBA3A20CCA01F054FBB0
:100D400000900191B0B201F03FFB02000B0000984F
:100D5000019901F00BFC01F06AFC2D4E7064B06447
:100D60009C4F386880B2A90601433960206804218D
:100D7000014321600820A062A06804210143A16012
:100D8000206880082840FBD0206C80B201F080FCF5
:100D90000100706C01F08BFC0100E820800501F07F
:100DA00086FCF0643868000C0004210D01433960B2
:100DB000F07E012828D0B06DC079002824D0386892
:100DC000000C000420210143396020680421014304
:100DD0002160600DA062A06804210143A160206829
:100DE00080082840FBD0206C80B201F051FC716C6F
:100DF00001F05DFCE621890501F059FC3065386899
:100E000080B269050143396003B0F0BDE42C0008ED
:100E1000C801002010040048FFFCFFFF100000483C
:100E2000F0B585B0664C2068042101432160802024
:100E30008002A062A06804210143A160012620680D
:100E400080083040FBD0276CB44D686C01F088FC02
:100E5000029003915B48008801F0B6FA5AA20CCACE
:100E600001F0C2FA00900191B8B201F0ADFA0200AF
:100E70000B000098019901F079FB00900191686CDA
:100E800001F06EFC02000B000098019901F0E4FCF7
:100E90000022A34B01F06AFB029A039B01F079FC4C
:100EA00001F0C5FB68642068042101432160022031
:100EB000A062A06804210143A1602068800830403E
:100EC000FBD0206CAF6C80B201F0E2FB0100686CDB
:100ED00001F0EDFB0100E820800501F0E8FB39009E
:100EE00001F069FD8F4901F0BEFD390001F02BFDD5
:100EF000A864384F386880B2B10601433960206871
:100F00000421014321600820A062A068042101435C
:100F1000A160206880083040FBD0206C80B201F0D6
:100F2000B7FB0100686C01F0C2FB0100E8208005FE
:100F300001F0BDFBE96C01F03EFD7A4901F093FD43
:100F40000100E86C01F0FFFCE8643868000C000464
:100F5000210D01433960E87E01282DD0A86DC079AC
:100F6000002829D03868000C000420210143396092
:100F70002068042101432160600DA062A068042163
:100F80000143A160206880083040FBD0206C2C6DAC
:100F900080B201F07DFB696C01F089FBE6218905D7
:100FA00001F085FB210001F006FD5E4901F05BFDCB
:100FB000210001F0C8FC286505B0F0BDC80600207E
:100FC00000240140BAF7FF1F6666666666660A403F
:100FD000FFF3FFFF18040048F0B583B04F4CE36DFA
:100FE00003208343E365504A504D2868C00712D55B
:100FF000A06C110001F08CFD02D201211943E165C2
:10100000FC21890501F084FD05D2E06D03218843B0
:1010100002210143E1650C26F643E36D3340E365AD
:10102000E76C3800110001F073FD02D20420184370
:10103000E065A06C01F094FB99A20CCA01F0D4F910
:1010400000900191380001F08BFB009A019B01F0A8
:1010500072FD04D2E06D064008203043E0650320B5
:10106000E16D8908014031D02968C90705D5696853
:10107000090C090401220A436A604021615A0A29C5
:1010800003DAA16DC978FF2905D1696889B2802288
:10109000D2020A436A60E16D89080140012906D144
:1010A000617E01220A436276A17E202207E00229A6
:1010B0000CD1617E04220A436276A17E10220A438B
:1010C000A27661698908014000D16186E16D014223
:1010D00022D00422637E04261E436676A37E202649
:1010E0001E43A6768908084009D16868000C0004F0
:1010F00002436A60686880B2802149020AE06B4856
:101100000178491C01704078C9B2814204D36868F3
:1011100080B291030143696003B0F0BDC8010020B3
:10112000000034400000A041EC5118401400004879
:10113000F8B55D4CE07E0125010003D1A16DC979B0
:10114000002905D102286ED1E06D8005800F6AD19B
:10115000266D5748310001F0AAFA0700606C310093
:1011600001F029FC0100380001F07DFC6065F822E7
:101170000323504901F0F8FC03D94F4901F0C8FCA2
:1011800004D2617D114003260E4366754B4901F080
:10119000EBFC08D84A4901F0BBFC04D2617D114048
:1011A00002260E436675474901F0DEFC08D8464921
:1011B00001F0AEFC04D2617D114001260E4366753C
:1011C000424901F0D1FC06D86E4901F0A1FC02D2DF
:1011D000617D114061756C4901F0C6FC08D86B490E
:1011E00001F096FC04D2617D114001260E43667524
:1011F000674901F0B9FC08D8664901F089FC04D2BE
:10120000607D1040022101436175E06D800903405B
:1012100006D1607D410703D0024001201043607574
:10122000002020760AE060695B490968890502D4DC
:101230005A49014001E0290401436161606956494E
:101240000968C90402D45649014001E0E903014399
:101250006161607EA17E6269C0235B02134002D19E
:10126000637D5B0716D02577022606431007800FA3
:1012700000D16086D00B284002D0080040210143F5
:10128000100C054002D1607D400705D00800022106
:10129000014301E080218026A1766676F1BD000041
:1012A000B81E85EB51B8DE3FC80100206002002067
:1012B0000000AF45013EA64600007A430100794395
:1012C00000808E4401608E4400E00D4501D00D4544
:1012D000FCB5344C20680102090E334DA86D8079AD
:1012E00000900226EE77E87E002805D1A86DC0792F
:1012F000002801D11420E8770020687720680322B5
:10130000904320600327206800090240EA76009895
:10131000401A01900198EA7F90422ADA009801F081
:101320004DFC002904D00098E97F01F047FCE977E3
:10133000019801281DDA1D4801210268120C1204CF
:101340000A430260026892B24B04134303602068B0
:1013500080B2206069772068B84301432160EE774E
:10136000E87E002805D1A86DC079002801D114209D
:10137000E877206800093840012800D12F77E87FFE
:10138000F6BD0000006812460164124600C05F46C8
:1013900001BC5F460040A64610040048FFFFFEFF68
:1013A000FF7FFFFF50280040C801002018140048AC
:1013B00070B401209A49097F012909D000D2DCE0EC
:1013C000032900D192E030D3042900D1B1E0D4E068
:1013D000040494490A6892B222430A600A68120C13
:1013E0001204022313430B6065258F4A8F4BD66A84
:1013F000360C36041E43D662566A360C36045662E4
:10140000166986431661166806431660166906401B
:10141000FCD06D1EEBD1086880B204430C600868F4
:1014200080B2520B02430A60AEE07E490A68120C99
:10143000120402430A600A6892B2430413430B6029
:1014400065246525784A794BD66A360C36041E43E6
:10145000D662566A360C36045662166986431661A1
:1014600016680643166016690640FCD06D1EEBD167
:101470000D68ADB206042E430E600D68ADB2460491
:101480002E430E606525D66A360C36041E43D6629E
:10149000566A360C3604566216698643166116681B
:1014A0000643166016690640FCD06D1EEBD10D6830
:1014B0002D0C2D0405430D600D68ADB246042E437E
:1014C0000E60D16A090C09041943D162516A090CF2
:1014D000090451621169814311611168014311606E
:1014E00011690140FCD0641E4ED0EAE74D490A68FC
:1014F000120C120402430A600A6892B243041343B6
:101500000B608C49484A494BD46A240C24041C4380
:10151000D462546A240C2404546214698443146110
:1015200014680443146014690440FCD0491E2BD095
:10153000EAE73C490A6892B2030413430B600A6865
:10154000120C1204022313430B607A49364A374BBC
:10155000D46A240C24041C43D462546A240C24044A
:101560005462146984431461146804431460146958
:101570000440FCD0491E07D0EAE7914800210160F1
:101580000171C1800181817270BC704710B48748BD
:10159000012182680A438260826852080A40FBD0B7
:1015A0000168802252050A43026081490A68830D5E
:1015B00013430B607F49804ACB6A13600B6B536007
:1015C00043688C0B1C43446043687C4C1C40446063
:1015D0004368CC0B1C43446043688A4C1C40430D59
:1015E000234343600868FF239843CA2303430B60E7
:1015F0000868FF239843532303430B601068C862B5
:10160000506808630868FF229043FE2202430A6084
:101610000868FF229043642202430A6010BC7047AE
:10162000C80100201814004800040040DE03000038
:1016300030B475488169FF229143CA220A4382610E
:101640008169FF22914353220A438261416BC20B9D
:101650000A434263416B6D4A0A40810D1143416365
:101660008021426B0A4342630123426B1A43426367
:10167000426B0824144344630422446B14434463C0
:10168000446B8D0325434563614C2468E407446B38
:1016900002D54D03254301E05E4D25404563446B73
:1016A0005D4D2540440C2C43446304682143016094
:1016B000016889091940FBD04168764B0B40C6216F
:1016C000C903194341604168C90BC903FF23903323
:1016D0000B43436001688023994301608169FF23C4
:1016E0009943FE230B4383618169FF23994364235C
:1016F0000B4383612D48016893060B4303606648E2
:101700008168D3030B438360A0210903634B046802
:101710001C400C43046044682340194341608168C5
:1017200053040B43836006205D4908605D480260F6
:1017300030BC7047B90B000010B4012032490A6870
:10174000120A02400AD00A68574B13400B60574AEE
:101750001368574C1C404304234313600A68520B20
:10176000024007D10A68920B024003D10A68D20BEB
:10177000104017D008684F4A02400A6008684E4A75
:1017800002400A6008684D4A02400A60474A1068F1
:101790008021090301431160494801688022D20376
:1017A0000A43026010BC704730BF70471C100240F3
:1017B0000070004024280040C0060020FFFFFEFF0C
:1017C000A806002070B4BC4C0A0014D0BB4A802389
:1017D0001B022500047824026C40082566001C4288
:1017E00003D034005440A4B200E0B4B26D1EF5D171
:1017F000401C491EEDD12002210A401880B270BC65
:1018000070470000FFFCFFFF0C280040FFF8FFFFBF
:1018100014000048FFFFEFFFFF9FFFFF78B41400A4
:101820000DD0049CDDB2A54200D300230578DBB2C5
:10183000CE5C6E4006705B1C401C521EF2D171BC27
:101840007047F3B406216B461C790023E5B2082DDE
:1018500000D30024C5180095B04E2D78E4B2371996
:101860003F796F40009D2F70641C5B1CE5B2082D12
:1018700000D30024C5182F78E4B2361936797E409B
:101880002E70641C5B1C082BE0DB0830491EDAD18B
:10189000F3BC7047FFFF80FF00040140FFFF00FF23
:1018A0008800014000E100E0FFFEFFFF140401405A
:1018B000FFFFFCFFFFDFFFFFFFBFFFFFFFF7FFFFA3
:1018C00014100240FEB41A0008990C000FD0040056
:1018D0000D00D6B2202E00D300222678009FD2B26F
:1018E000BF5C77402770521C641C6D1EF1D1837160
:1018F000079A0B000DD0D3B2082B00D30022037837
:10190000019CD2B2A45C5C400470521C401C491E75
:10191000F1D103B0F0BC70477CB5040066202070A4
:10192000AA206070A070E0702D2020712B206071C3
:10193000A04EA14DE87E002838D10C20B0700D20BB
:10194000A0710120E071A86D00782072A86D407828
:101950006072A86D8078A072A86DC078E072687E11
:101960002073307860730020A0730720E073082193
:1019700020000830FFF726FF2074000A6074B620AC
:1019800030716648B178891EC9B2019141780091E1
:101990000378021D311D20000830FFF793FFB07857
:1019A000411EC9B2E01DFFF70DFF32E00820B07004
:1019B0000920A071E87E022800D00120E071A87EF5
:1019C0002072A86DC0786072A86D4079A07270789E
:1019D000E072042120000830FFF7F4FE2073000AB3
:1019E00060734E4873210171082100914378B178EA
:1019F0008A1ED2B2011D20000830FFF70FFFB07819
:101A0000411EC9B2E01DFFF7DDFEE97E022900D1CB
:101A1000E171B278A2189071000AB1786118C871AA
:101A2000B0780830C0B276BDF0B583B006000F00C4
:101A30001500614CE07E012801D0022800D1052567
:101A400001200090231D220009210420FEF798FEAA
:101A50000120009001AB32000021B81CC0B2FEF79B
:101A60008FFE564E7570377101200090B31D320005
:101A700001210620FEF784FE60690321884360612E
:101A80000020308120253089401C308101200090C9
:101A9000231D22000921FEF773FE30890F2802DA88
:101AA000207A2842EFD06069032188430121014355
:101AB000616103B0F0BD0000FFFF000021100000D5
:101AC00070B582B03C4DE97E012901D0022900D1D8
:101AD00005203B4E7070402030710624012000909C
:101AE00033000833320001210820FEF749FE0120AF
:101AF00000902B0011332A0010320321FEF740FE24
:101B000068690C218843A97C090703D50421014396
:101B1000696173BD6861641EE0D173BD240000205B
:101B2000F0B583B007000020694608713026F643FF
:101B3000214C60693040606180256D0000E06D1EC1
:101B400001200090231D22000921FEF719FE10201C
:101B5000E179014201D1002DF1D161690E4030439C
:101B6000606101200090231D220009210420FEF75E
:101B700007FE60698006800F1AD0124C0120009089
:101B8000A31C22000321FEF7FBFDE078812800DB87
:101B900080202074772038706946087101200090F9
:101BA0003B0001AA217C491CC9B20020FEF7E8FDD8
:101BB00003B0F0BD00000020C80100204402002056
:101BC0005002002028020020F1B58CB000223F4CCA
:101BD0008A2040002018019001998A7001994A706A
:101BE0003B484069C021884339494861C97E002982
:101BF00003D0022908D003D308E00D20042101E01E
:101C00002D200121029101E02D20029230494969E5
:101C10008906890F00D187E10C99895C814208D13E
:101C20000C9989184978029B994202D1019B5A70FC
:101C30000DE0521C0C99895C814205D10C998918E0
:101C40004978029B9942F1D0521C142AE4DB142AF1
:101C500042DB01212200803203920C9B41250826A1
:101C6000761A6F463E701E788E40B4465F786E4698
:101C70003678F7406646374317705B1C521C6D1E62
:101C8000F1D10022039B5D781E78864205D1029E29
:101C9000B54202D1019D6A700AE0521C854203D10F
:101CA0009D78029EB542F5D0521C9B1C142AEADB9B
:101CB000019DA970142A0DDB491C0829CADB0448C0
:101CC00040699F4901400248416135E1B000002070
:101CD000C801002003980C900C980199497840188D
:101CE0000178812902DB8021002201E0002207D453
:101CF000230005781D70521C401C5B1C9142F8DAD1
:101D00002078812800DB80200199C8700198C5786F
:101D1000691CC9B22000FFF755FD0028894800D092
:101D2000FDE0C07E002841D1874E607804283AD17A
:101D3000844840694021014382484161ED1E0820EA
:101D400000907378EAB2311DA01CFFF767FDA378FD
:101D50000198037020200090EAB27C49A01CFFF794
:101D60005DFD0020A070E9B2A01CFFF72BFD00284C
:101D700019D17748E1780278914214D121794278DB
:101D8000914210D16179827891420CD1A179C078C9
:101D9000814208D16B484069694901408020800137
:101DA0000843684948610198007830706548C07EF2
:101DB000012802D0022800D0B6E062484069D34929
:101DC00001408120800108435E4948615E484178B6
:101DD000A01CFFF736FD5B48C07E012800D0A3E0C1
:101DE0006846217A0170E1794170A1798170617949
:101DF000C170217B0171E27A4271A27A8271627AAA
:101E0000C271504AD26D9205920F521E9241D20F6A
:101E10000271E27B0272A27B4272627B8272C172A9
:101E2000E17C0173A17C4173617C8173217CC1736E
:101E3000E17D0174A17D4174617D8174217DC17456
:101E4000E17E0175A17E4175617E8175217EC1753E
:101E5000E17F0176A17F4176617F8176217FC17626
:101E6000210021318A7802774A7842770A7882778E
:101E70002022A25CC2778A792023C2544A79212386
:101E8000C2540A792223C254CA782323C2548A7ABC
:101E90002423C2544A7A2523C2540A7A2623C254E0
:101EA000C979272281549A499A4808609A4808605B
:101EB000C86802220243CA60254A0A61C8684023F2
:101EC0000343CB60012388681840FCD1C868022412
:101ED000A043C8606C460A25C8681843C860886873
:101EE0001840FCD1A0780002E67830431080886862
:101EF0001840FCD12078060260780643901C0680CA
:101F000088681840FCD1C8689843C860241D121D19
:101F10006D1EE1D1C86880220243CA6004E04069B6
:101F20007A49014007484161064840694004800FF2
:101F3000012801D1002000E001200DB0F0BD00001B
:101F4000FF9FFFFFC801002024000020087C00083C
:101F5000007C0008F8B5714DA87C002803D1FEF77D
:101F6000EFFC0120A8746E4C208CA08660690326CB
:101F70008108314002D0C104C90F19D0694F38001F
:101F8000FFF7CAFC6874A16D4A7901003800FFF7B9
:101F90004BFD012000902300113322001032032159
:101FA000FEF7EEFBA06D4079FFF78AFD64206086A6
:101FB00060698008304000D19AE05A4F3800FFF73E
:101FC000AFFD01200090AB1C2A0003210220FEF788
:101FD000D7FB01200090230011332200103203218F
:101FE000FEF7CEFB06206872012000902B000A331A
:101FF0002A0008320221FEF7C3FB012000902300D3
:102000001133220010320321FEF7BAFB3800FFF72C
:10201000DBFD00283BD1E88A401CE8824021615A60
:10202000AA8A5118A98280B200F032FB0090A88AD7
:1020300000F02EFB0100009800F015FDA8610020C3
:10204000402160526069302188436061E07E010078
:1020500008D1A16D897964224A43012A02DB6422F6
:102060004A436286012803D126770220E076E6778C
:102070002D48016809042DD1E16D89080E4029D051
:10208000416889B28022D2020A43426022E00020E5
:1020900060864020215A491C215289B2032919DB4C
:1020A000A06D8079642250430A015118401A60865D
:1020B000002040216052E07E012804D104202077D6
:1020C0000220E076E6776069AE4901408020C001D9
:1020D00008436061E07E012801D100206086FF2274
:1020E0008021380000F0C4FD60690C2188436061E4
:1020F00001200090231D22000B210420FEF740FB4D
:102100006069032188436061F1BD00003F9FFFFFCC
:102110000420024023016745AB89EFCD280200204F
:10212000C80100203000002014000048F8B5FFF777
:102130002DFA954C20688021890201432160206896
:102140008021C9020143216020688021C903014325
:1021500021606068610D0143616060680121014395
:102160006160FDF7ADFFFEF777FAA0680221014339
:10217000A1608648816A090C090407220A43826229
:10218000016808220A43026081484168090E090675
:10219000804A0A4342608168090E0906816001682D
:1021A00002220A430260016801220A430260FEF72C
:1021B0007FFA794C19212000203000F077FD322081
:1021C00060860220E086E085012074498870FFF770
:1021D0007FF8E077724F734D734EA2E0E17E0229E3
:1021E00014D16E4A5278904204D1617E6B4A1278C3
:1021F00091420BD00021A17761690907890F03D1B2
:10220000617E664A11705070FFF7A4FE6069400459
:10221000800F06D1E07E617F014302D0207F042839
:102220007AD1FFF7C5F86148006880B2A90B014375
:102230005E480160006880B28021890201435B48EA
:102240000160FFF7F5F930680C218843E16D090A58
:102250000C220A4002433260306830218843E17E1C
:10226000090130220A4002433260E07F31680204F3
:102270008918316072684E491140627E12020A4329
:1022800072607168FF229143A27E0A4372602968DE
:10229000090C0904474A0A432A60696807229143E6
:1022A00006220A436A60A968090B09039C2250436D
:1022B0000005000D0843A8602868000C00043E4992
:1022C000014329602868000C00043C49014329604F
:1022D00004203B490968090C09040143384A11608C
:1022E000116889B242060A4335490A6035490968CE
:1022F0000143344A1160396802220A433A6039685E
:102300000843386078680121014379603868012109
:1023100001433960FFF748FA2048C078401C1F4944
:10232000C870FEF77DFD1D48C078618C228F891A28
:10233000C9B2E28E914202D200280ED101E00028FB
:1023400001D1FEF7DDFCFEF797FCFEF7F1FEFEF78C
:1023500043FEFFF72DF8608C2087608E218CA28EC3
:10236000891A89B2884200D350E7A07E010003D1C8
:10237000617E802900D131E7E17E022900D039E772
:102380002FE70000FF9FFFFF1410024000040040F1
:1023900010E000E00F270000C80100205C020020D0
:1023A00000700040003000405028004018140048E1
:1023B000FF00FFFF55550000AAAA0000CCCC00008A
:1023C0001804004810ED00E0010000BF4222120195
:1023D000D21E004207D002D4521E0018FCD5C10AFA
:1023E0004005120589187047F0B50E005E400125C2
:1023F000ED072E40B446AE0ADF184C18F44208D25E
:10240000F7420ED2640D01D07F0D12D1002061463B
:10241000F0BD05D1F74201D87F0D05D10020C143A1
:10242000F0BDFBD1640DF9D00020C1434905490836
:102430008FE0E419C902DB0229432B43DB0A460D76
:10244000C00231438E4630B487B295B27D432E0C24
:10245000ADB2140C7C43A419260C240425439CB271
:102460007C43A419190C7943270CC919A4B20F0491
:102470003C43090C000C97B247432E0CBE19354360
:10248000ADB2170C4743360CBF19A6B2BF193E04B4
:102490003543240C3E0C36199FB24743BF19BCB2DA
:1024A0003E0C89191F0C47437F183E043443390CF6
:1024B000704680B297B247432E0CBE193543ADB279
:1024C000170C4743360CBF19A6B2BF193E0435435B
:1024D000240C3E0C36199FB24743BF19BCB23E0CC8
:1024E00089191F0C47437F183E043443390C774643
:1024F0003F0C90B278432E0C80190604ADB22E43E7
:10250000050CA0B22D18120C7A435019020C80B29F
:10251000240CA4189AB27A43121914042043120C02
:1025200089181B0C7B43C91830BCEF0A394203D110
:10253000B61940414941641E6F12BF0DE41B0BDB0D
:10254000FF19BC4211DA240500274208AE41784148
:10255000614166463143F0BD641C05D1401C6141B8
:10256000CF0201D34908F4E750E75DE7F0B40E006D
:102570005E400125ED072E40B446AE0ADF184C1828
:10258000F4423BD2F74241D2640D43D07F0D38D0A4
:10259000E41BC902DB0229432B43CF0ADB0A0600F6
:1025A000B61A9F4104D2641EB6197F41B6185F4126
:1025B0006812800D24180018844222DAE80C0021E9
:1025C000B6197F41B61A9F4102D2B6185F413F1C2F
:1025D00040414941F4D3241C21DD2405B6197F4133
:1025E000B61A9F4105D33743C60737430026012F4C
:1025F0007041614166463143F0BC7047FCD1F742FF
:1026000005D20020C14349054908F3E704D0002062
:10261000C143F1E77F0DFAD000206146ECE7244288
:10262000FAD1401C61410F03F6D30020E2E70122FA
:1026300052054B18DA4201D9581570475B0D072235
:10264000D2019B1A10D9FF2B1DD2DB050122D20724
:102650000A4013430903020D1143490AC2005241C3
:1026600000D9491CC81870470AD1800A0A030243DE
:102670005212921C04D9D3070B40D005184370475F
:10268000C80FC0077047C80F0002FF30C005704771
:102690009D2102000AD002D4491E9218FCD5C9051A
:1026A000100A1206524100D3012A4841704730B443
:1026B00005004D400122D20715404B180418240E86
:1026C0002ED01B0E32D0FF2C34D0FF2B3AD0E41882
:1026D0000002090210431143000A090A9446C2B2DB
:1026E0004A43000AC3B24B43000A4843110A5B182D
:1026F0001A43D2B2190A091801D44918641E080AEB
:102700007F3C23DBFE2C08DAE4050906114363460F
:1027100099416041284330BC7047FF20C005F9E76C
:1027200028001B0EFF2BF6D1D043F4E72800FF2C26
:10273000F1D1F9E74002F7D1FF2B01D14902F3D1E2
:10274000E005E7E7D8054902E4D0EDE743020020C1
:10275000641CDFD15B129B1CDCD9D805DAE7FEE7ED
:10276000012212060118CA420AD28A420DD8382222
:10277000120609098918C20FD20711434007704792
:1027800000D049080909014301E0C10FC907002031
:102790007047F0B40125ED070F005F404FD48B4226
:1027A00000D1824205D98446100062468C46190049
:1027B0006346DF184C18640D7F0D3AD0661C760511
:1027C00037D0E61B352E34DCDB022B43DB0A0C0D45
:1027D000C9022943C912202E0DDB1700203E06D066
:1027E0001F00F741F3405F400026012A7741C018DF
:1027F00071410DD217E01700F741F2405740F34105
:102800005A40B340F3405A400026801859410AD339
:10281000A21C52050FD0C207012F724117004008B9
:10282000CB0718434908641C24054208AF41704196
:102830006141F0BC7047641C21050020F9E76B4042
:1028400010E06B40ABE7F742F3D1E943F1E72442F4
:10285000EFD100200021ECE7F0B40125ED070F00D7
:102860005F40EED40C00871A9C4105D2C01BA141E9
:10287000D219634169406B40AE0ADF184C18F4422C
:10288000E1D2640D7F0DE2D0E61B362ED1DCDB02F7
:102890002B43DB0AA4460C0DC9022943C90A012EA9
:1028A00028DC04D1D6075208DF073A435B08EF0A59
:1028B00076429041994114D039423BD1B6194041FA
:1028C0004941761C394204D1761C001849413942ED
:1028D000FAD0B9436746B74208D9A41B240521435F
:1028E000A7E70042EAD13642E8D1A2E7E40AE107CD
:1028F00000209EE7202E0BDD203E1F00F340F74115
:102900005F40012A002257417E42984191410BE0ED
:102910001700F741F2405740F3415A40B340F340AB
:102920005A407E42904199410A0303D2641EB6196F
:10293000404149410027641E24054208AE417841C8
:102940006141F0BC70470122D20703004B402ED4F6
:10295000431A01D2C01AC91830B44B180418240EF7
:102960001B0E22D0FF2C20D0E31A182B1DDC0902ED
:102970001143C40D641E0002104394461925ED1A3C
:102980000A00AA40D940451801D36D08A41CE405EB
:10299000D209280A2D062A436546AA416041031838
:1029A0001B0EFF2B01D3C00DC00530BC704751403A
:1029B00006E05140CCE70122D20703004B40F8D497
:1029C000431A03D2C01AC9185040514030B44B18B2
:1029D000090211430418240E1B0E40D0FF2C3AD0DC
:1029E00025009D410BD31ED8C50D4002401A0BD3C4
:1029F000ED050100400AC90591416841D5E7C50DC3
:102A000040024918401AD0D001214008491C001842
:102A1000FCD58C4204D36D1A000AED054019C4E7B9
:102A2000E8051040C1E7182DBFDCAC1C0D00E140EB
:102A3000E5414D40012D4941C40D00021043451AA6
:102A400001D46D199543641EE405280A2D069541AD
:102A5000604130BC7047FF2BA7D1D843A5E7244283
:102A6000A3D10020A1E730B405004D400122D207D8
:102A700015404B180418240E28D01B0E2FD0FF2C05
:102A800034D0FF2B37D0E41A00020902104311435F
:102A900043084808D10D1B1A02D2641EDB181B180C
:102AA000DB18834200D31B1A4941F9D37F3426DD5A
:102AB000FE2C08DAE4054808C90719439141604132
:102AC000284330BC7047FF20C005F9E728001B0EE3
:102AD00003D0FF2BF5D14902F3D0D043F1E7FF2C0F
:102AE00001D14002F9D1FF20C005E9E74002F4D14D
:102AF000FF2BF8D1F1E728004902E2D0EDE70B0205
:102B000000202442DCD15B129B1CD9D9D805D7E721
:102B10000CB4012212060318DA4207D84B18DA4225
:102B200004D802000A43921802D288420CBC7047B3
:102B3000FCD08142FAE730B4012464054D00EC4238
:102B40000BD85D00EC4208D80C001C436400044321
:102B5000144304D2994200D1904230BC7047FCD05B
:102B60008B42FAD18242F8E70CB401221206031814
:102B7000DA4207D84B18DA4204D802000A43921806
:102B800002D281420CBC7047FCD088420CBC70471A
:102B9000F446002804D4494200F013F8404260474C
:102BA0004042002905D45FD000F00BF84042494272
:102BB0006047494200F005F84942604703460B432D
:102BC000E6D40022030A8B420BD203098B4219D2AE
:102BD00043088B422ED2411A00D201465241104680
:102BE0007047FF2209023FD012068B4205D3121212
:102BF00009028B4201D31212090203098B4219D335
:102C000000E0090AC3098B4201D3CB01C01A52412B
:102C100083098B4201D38B01C01A524143098B4275
:102C200001D34B01C01A524103098B4201D30B015E
:102C3000C01A5241C3088B4201D3CB00C01A524183
:102C400083088B4201D38B00C01A524143088B4248
:102C500001D34B00C01A5241884200D3401A52415E
:102C6000CFD201461046704708B5C046C04608BDE1
:102C70001206130A1A43130C1A4300BF130030B490
:102C800014001500103902D310393CC0FCD249079A
:102C900000D30CC000D504C0890002D30280801C80
:102CA000002900D5027030BC704700000022E5E723
:102CB000110104000733273C00000000110204004A
:102CC0000806040A000000000000000011240400AF
:102CD0000200004F0000000000000000111104007D
:102CE000B4D42B2D112201007F000000669571A93C
:102CF000764EA573F1F71C50BC48877DB866C8CAEC
:102D00000AFEAE0DA63BC03C932304F2188A6B94D6
:102D1000A8EA986BE0C6C43598C2D9BFFC31AFEBC6
:102D20000D3D1ED4B7CCA9F392B79CCFA11EDDF701
:102D3000A6E1943F50CB7E9141EE1F0A5CF6FE1B4C
:102D4000D5139A9198C1F941014574D2C605E4FDA5
:102D50002C1FD9C8E70A930FEC44302B180400004D
:102D600066FDBE457D44B3E953B374C72C79C46195
:102D7000B96FD551E65CBA122197F7C47D8034450E
:102D8000AC45B2DE204E4FB00F49BE1401730EAEFB
:102D900008E5E615D7F5EBE2C1C128D0E1A2A2AA69
:102DA000CE50630C955B8578F657ED333A382ED8C4
:102DB000C961DB338E800C84C78B8695F6180FD5DE
:102DC000484C702212AEAABE85915020D12832FF05
:102DD0000100000002010001C9C3800013010101CC
:102DE000011A0000197FE60070B40121002213E0EF
:102DF0000468001D0C4202D04D466D1E641922600D
:102E0000241D1B1F042BFAD225009E0701D522800A
:102E1000AD1C0B4000D02A700368001D002BE7D1C9
:102E200070BC704730B501684118446862088A1860
:102E30008368E40701D54C461B19914201D10C303F
:102E400030BD0C7864B2491C0D78491C1D705B1CA8
:102E5000002C02D5641CF9D1EFE7641EF4D5ECE731
:102E600010B5074979441831064C7C44163404E007
:102E7000081D0A68891888470100A142F8D110BDD1
:102E8000080000002400000061FFFFFF6400000054
:102E900068060020000000008DFFFFFF9A00000080
:102EA00012010000000000200120C046002801D0CF
:102EB000FFF7D6FF002000BF00BFFFF737F900F093
:102EC00000F880B500F002F801BDFEE7074638467D
:102ED00000F002F8FBE7FEE7202109032631182065
:102EE000ABBEF9E700BF00BF00BF00BFFFF7DCFFCC
:102EF00000480047E52E0008FEE7FEE7FEE7FEE794
:102F0000FEE7FEE7FEE7FEE7FEE7FEE7FEE7FEE799
:102F1000FEE7FEE7FEE7FEE7FEE7FEE7FEE7FEE789
:102F2000FEE7FEE7FEE7FEE7FEE7FEE7FEE7FEE779
:102F3000FEE7FEE7FEE723BA120000B61B15B46BEE
:102F4000A0C9114C0D1393CC017EFEB12BA9B7FA89
:102F5000280E9C63CD8E1DEF8A1583FC00077398A5
:102F60000A8067C6A193F8FF81008700FCAA0B2D99
:102F70002B090173980A92D17590A28100FA00067C
:102F8000070000203FAF3CF4000033F8000080DA77
:102F9000000001E800027C0008FC00011503FA00B3
:102FA000013403EE00053100300000FFFA0000326A
:0F2FB000FD000340080303FC000080FC0000014B
:0400000508002EE5DC
:00000001FF
