:020000040800F2
:1000000038040020FD0A0008CF0A0008DB0A0008B7
:1000100000000000000000000000000000000000E0
:10002000000000000000000000000000050B0008B8
:100030000000000000000000070B0008D5020008C7
:10004000090B00080B0B0008410300080D0B00080A
:100050000F0B0008110B0008130B00080903000820
:10006000150B0008170B0008190B00081B0B0008E4
:100070001D0B00081F0B0008210B0008230B0008B4
:10008000250B0008270B0008290B00082B0B000884
:100090002D0B00082F0B0008310B0008330B000854
:1000A000350B0008370B0008390B00083B0B000824
:1000B0003D0B00083F0B0008410B0008430B0008F4
:1000C00000B54448006880088007800F02280CD1E2
:1000D00040480068032188433E4908603D48006865
:1000E00080088007800F0028F8D13B4800683B4912
:1000F0000140394801603848006801008901C90F92
:100100000029F8D0364800681021014334480160C6
:1001100033480068072188430121014330480160CA
:100120002C4800682F4901408020000208432949DB
:100130000860284800682C4901408020800308435B
:10014000244908602448006880214904014322486A
:1001500001602148006801008901C90F0029F8D019
:100160001C480068032188430221014319480160AB
:100170001848006880088007800F0228F8D11B48C3
:10018000006880218902014318480160174800680F
:100190008021C9020143154801601448006880218C
:1001A0000903014311480160104800688021C90318
:1001B00001430E4801600E48006880218900014318
:1001C0000B4801600A4800680121014308480160AA
:1001D00000BD00000410024000100240FFFFFFFEBF
:1001E00000200240FF7FFEFFFFFFC3FF141002400C
:1001F0001810024000B545480068802109060143F7
:100200004248016041480068C00F0028FAD14048C8
:1002100000688021490201433D4801603D48006873
:10022000072101433B480160384800680121014330
:100230003648016000203849086035480068314977
:10024000014033480160354800688021C9030143FB
:100250003248016032480068800080088021C9056A
:1002600001432F48016000BD2E480068000E0006C3
:100270002D4901432B4801602C480068000E000600
:100280002A4908602A480068022101432848016081
:10029000274800680121014325480160704700009C
:1002A00000B52449096804220A4322490A601A4910
:1002B00008601648006804210143144801601D4885
:1002C000006801004907C90F0029F8D01A480068E2
:1002D00080B200BD00B519480088401C174908804D
:1002E00016488088401C15498880144880880A2850
:1002F00007DB00201149888010484088401C0F49C6
:10030000488000BDFFDFFFFF704700000824014068
:100310000C240140142401402824014008270140F6
:100320001024014014E000E00F27000018E000E076
:1003300010E000E0002401404024014000000020C3
:1003400000B5264800680100C905C90F00290ED074
:100350002248006822490140204801602148006885
:10036000214901408020800208431E4908601B4843
:10037000006801008904C90F00290DD117480068E1
:1003800001004904C90F002906D114480068010082
:100390000904C90F00291FD0104800681349014003
:1003A0000E4801600D480068114901400B4801608A
:1003B0000A4800680F490140084801600948006880
:1003C000802109030143074801600B480068802130
:1003D000C90301430848016000BD00000C2800402B
:1003E000FFFEFFFF14040140FFFFFCFFFFDFFFFFE4
:1003F000FFBFFFFFFFF7FFFF14100240D0B5FFF76C
:100400005FFEFFF731FF6848006880210903014360
:1004100065480160654800688021890001436348A0
:1004200001609020C00500680C2101439020C005A8
:1004300001605F4800680C2188435D4908605D48A1
:100440000068022188435B4908605B4800680C2112
:1004500088435949086059480068000C000457490E
:1004600008605648006880B2544908609020C00572
:100470000068C02101439020C00501604C4800681D
:10048000C02188434A4908604A48006808218843D7
:100490004849086048480068C021884346490860C8
:1004A00046480068000C000444490860434800685E
:1004B00080B24249086042480068454901408020B6
:1004C000C00408433E4908603E4800684049014076
:1004D0008020000508433B4908603C4800683A49D1
:1004E00001403A4801603B480068394901403948B9
:1004F000016039480068000C00043749086036483C
:10050000006880B280218905014333480160FFF70C
:1005100071FE39E030490968090C09048022920112
:100520000A432D490A60401C31498842F2DB802091
:100530008002FFF7B5FE04002848008880B200F072
:1005400059F827A20CCA00F065F806000F00A4B203
:10055000200000F04FF802000B003000390000F0DE
:100560001BF900F07AF9214908600820FFF798FE8E
:1005700080B200F0A3F91D49096800F0AEF91A49EC
:1005800000F003FA19498860002008E01249096860
:1005900089B2802292050A430F490A60401C14491F
:1005A0008842F3DB0020BFE714100240181002401D
:1005B0000C000048040000480800004818000048EB
:1005C000000800480C080048FFDFFFFF040800484F
:1005D000FFFFFFF30808004818080048BAF7FF1F9C
:1005E0006666666666660A4000F07F452000002069
:1005F00001400000010000BF42221201D21E004251
:1006000007D002D4521E0018FCD5C10A40051205BD
:1006100089187047F0B50E005E400125ED072E40A9
:10062000B446AE0ADF184C18F44208D2F7420ED294
:10063000640D01D07F0D12D100206146F0BD05D1BF
:10064000F74201D87F0D05D10020C143F0BDFBD199
:10065000640DF9D00020C143490549088FE0E41931
:10066000C902DB0229432B43DB0A460DC00231439A
:100670008E4630B487B295B27D432E0CADB2140CC9
:100680007C43A419260C240425439CB27C43A41962
:10069000190C7943270CC919A4B20F043C43090C67
:1006A000000C97B247432E0CBE193543ADB2170C60
:1006B0004743360CBF19A6B2BF193E043543240C7C
:1006C0003E0C36199FB24743BF19BCB23E0C891984
:1006D0001F0C47437F183E043443390C704680B2E8
:1006E00097B247432E0CBE193543ADB2170C4743A2
:1006F000360CBF19A6B2BF193E043543240C3E0C7C
:1007000036199FB24743BF19BCB23E0C89191F0C62
:1007100047437F183E043443390C77463F0C90B270
:1007200078432E0C80190604ADB22E43050CA0B2FE
:100730002D18120C7A435019020C80B2240CA41804
:100740009AB27A43121914042043120C89181B0C14
:100750007B43C91830BCEF0A394203D1B619404176
:100760004941641E6F12BF0DE41B0BDBFF19BC4235
:1007700011DA240500274208AE41784161416646FE
:100780003143F0BD641C05D1401C6141CF0201D34F
:100790004908F4E750E75DE7F0B40E005E4001253C
:1007A000ED072E40B446AE0ADF184C18F4423BD297
:1007B000F74241D2640D43D07F0D38D0E41BC9020B
:1007C000DB0229432B43CF0ADB0A0600B61A9F41FE
:1007D00004D2641EB6197F41B6185F416812800DBD
:1007E00024180018844222DAE80C0021B6197F414F
:1007F000B61A9F4102D2B6185F413F1C40414941A1
:10080000F4D3241C21DD2405B6197F41B61A9F417B
:1008100005D33743C60737430026012F7041614196
:1008200066463143F0BC7047FCD1F74205D2002048
:10083000C14349054908F3E704D00020C143F1E76B
:100840007F0DFAD000206146ECE72442FAD1401C2B
:1008500061410F03F6D30020E2E7012252054B1855
:10086000DA4201D9581570475B0D0722D2019B1A55
:1008700010D9FF2B1DD2DB050122D2070A401343FA
:100880000903020D1143490AC200524100D9491C13
:10089000C81870470AD1800A0A0302435212921CF8
:1008A00004D9D3070B40D00518437047C80FC007C1
:1008B0007047C80F0002FF30C00570479D2102003D
:1008C0000AD002D4491E9218FCD5C905100A120696
:1008D000524100D3012A4841704730B405004D40D1
:1008E0000122D20715404B180418240E2ED01B0EDF
:1008F00032D0FF2C34D0FF2B3AD0E418000209028A
:1009000010431143000A090A9446C2B24A43000A3E
:10091000C3B24B43000A4843110A5B181A43D2B2D0
:10092000190A091801D44918641E080A7F3C23DB00
:10093000FE2C08DAE405090611436346994160413B
:10094000284330BC7047FF20C005F9E728001B0E84
:10095000FF2BF6D1D043F4E72800FF2CF1D1F9E7C3
:100960004002F7D1FF2B01D14902F3D1E005E7E7BF
:10097000D8054902E4D0EDE743020020641CDFD132
:100980005B129B1CDCD9D805DAE730B405004D407A
:100990000122D20715404B180418240E28D01B0E34
:1009A0002FD0FF2C34D0FF2B37D0E41A00020902DD
:1009B0001043114343084808D10D1B1A02D2641E8C
:1009C000DB181B18DB18834200D31B1A4941F9D3EB
:1009D0007F3426DDFE2C08DAE4054808C9071943F0
:1009E00091416041284330BC7047FF20C005F9E7C2
:1009F00028001B0E03D0FF2BF5D14902F3D0D043C2
:100A0000F1E7FF2C01D14002F9D1FF20C005E9E751
:100A10004002F4D1FF2BF8D1F1E728004902E2D0DF
:100A2000EDE70B0200202442DCD15B129B1CD9D9DC
:100A3000D805D7E770B40121002213E00468001D37
:100A40000C4202D04D466D1E64192260241D1B1FEE
:100A5000042BFAD225009E0701D52280AD1C0B4045
:100A600000D02A700368001D002BE7D170BC7047CE
:100A700010B5074979441831064C7C44163404E01B
:100A8000081D0A68891888470100A142F8D110BDE5
:100A900008000000140000009DFFFFFF340000006C
:100AA000000000200000000000F00BF8002801D03A
:100AB000FFF7DEFF002000BF00BFFFF79FFC00F044
:100AC00002F80120704780B500F002F801BDFEE792
:100AD0000746384600F002F8FBE7FEE780B500BFA6
:100AE00000BF024A11001820ABBEFBE7260002003F
:100AF00000BF00BF00BF00BFFFF7D6FF00480047A0
:100B0000F10A0008FEE7FEE7FEE7FEE7FEE7FEE784
:100B1000FEE7FEE7FEE7FEE7FEE7FEE7FEE7FEE7AD
:100B2000FEE7FEE7FEE7FEE7FEE7FEE7FEE7FEE79D
:100B3000FEE7FEE7FEE7FEE7FEE7FEE7FEE7FEE78D
:040B4000FEE7FEE7E7
:0400000508000AF1F4
:00000001FF
